{
    "contractName": "Voting",
    "abi": [
        {
            "anonymous": false,
            "inputs": [
                {
                    "indexed": false,
                    "internalType": "uint256",
                    "name": "id",
                    "type": "uint256"
                }
            ],
            "name": "BallotCreated",
            "type": "event"
        },
        {
            "anonymous": false,
            "inputs": [
                {
                    "indexed": true,
                    "internalType": "address",
                    "name": "previousOwner",
                    "type": "address"
                },
                {
                    "indexed": true,
                    "internalType": "address",
                    "name": "newOwner",
                    "type": "address"
                }
            ],
            "name": "OwnershipTransferred",
            "type": "event"
        },
        {
            "inputs": [
                {
                    "internalType": "uint256",
                    "name": "",
                    "type": "uint256"
                }
            ],
            "name": "IdToBallot",
            "outputs": [
                {
                    "internalType": "string",
                    "name": "data",
                    "type": "string"
                },
                {
                    "internalType": "uint128",
                    "name": "yesCount",
                    "type": "uint128"
                },
                {
                    "internalType": "uint128",
                    "name": "noCount",
                    "type": "uint128"
                }
            ],
            "stateMutability": "view",
            "type": "function"
        },
        {
            "inputs": [
                {
                    "internalType": "address",
                    "name": "",
                    "type": "address"
                },
                {
                    "internalType": "uint256",
                    "name": "",
                    "type": "uint256"
                }
            ],
            "name": "UserVoice",
            "outputs": [
                {
                    "internalType": "bool",
                    "name": "",
                    "type": "bool"
                }
            ],
            "stateMutability": "view",
            "type": "function"
        },
        {
            "inputs": [
                {
                    "internalType": "string",
                    "name": "_data",
                    "type": "string"
                },
                {
                    "internalType": "bytes32[]",
                    "name": "merkleProof",
                    "type": "bytes32[]"
                }
            ],
            "name": "createVoting",
            "outputs": [],
            "stateMutability": "nonpayable",
            "type": "function"
        },
        {
            "inputs": [],
            "name": "getIdsArray",
            "outputs": [
                {
                    "internalType": "uint256[]",
                    "name": "",
                    "type": "uint256[]"
                }
            ],
            "stateMutability": "view",
            "type": "function"
        },
        {
            "inputs": [],
            "name": "owner",
            "outputs": [
                {
                    "internalType": "address",
                    "name": "",
                    "type": "address"
                }
            ],
            "stateMutability": "view",
            "type": "function"
        },
        {
            "inputs": [],
            "name": "renounceOwnership",
            "outputs": [],
            "stateMutability": "nonpayable",
            "type": "function"
        },
        {
            "inputs": [
                {
                    "internalType": "bytes32",
                    "name": "newRoot",
                    "type": "bytes32"
                }
            ],
            "name": "setMerkleRoot",
            "outputs": [],
            "stateMutability": "nonpayable",
            "type": "function"
        },
        {
            "inputs": [
                {
                    "internalType": "address",
                    "name": "newOwner",
                    "type": "address"
                }
            ],
            "name": "transferOwnership",
            "outputs": [],
            "stateMutability": "nonpayable",
            "type": "function"
        },
        {
            "inputs": [
                {
                    "internalType": "uint256",
                    "name": "ballotId",
                    "type": "uint256"
                },
                {
                    "internalType": "bytes32[]",
                    "name": "merkleProof",
                    "type": "bytes32[]"
                }
            ],
            "name": "voteAgainst",
            "outputs": [],
            "stateMutability": "nonpayable",
            "type": "function"
        },
        {
            "inputs": [
                {
                    "internalType": "uint256",
                    "name": "ballotId",
                    "type": "uint256"
                },
                {
                    "internalType": "bytes32[]",
                    "name": "merkleProof",
                    "type": "bytes32[]"
                }
            ],
            "name": "voteFor",
            "outputs": [],
            "stateMutability": "nonpayable",
            "type": "function"
        }
    ],
    "bytecode": "608060405234801561001057600080fd5b5061001a3361001f565b61006f565b600080546001600160a01b038381166001600160a01b0319831681178455604051919092169283917f8be0079c531659141344cd1fd0a4f28419497f9722a3daafe3b4186f6b6457e09190a35050565b610f398061007e6000396000f3fe608060405234801561001057600080fd5b506004361061009e5760003560e01c8063a82a560111610066578063a82a560114610140578063badab31e14610153578063e0100a4d14610166578063ea6b60fd1461017b578063f2fde38b1461018e57600080fd5b806329d63d53146100a3578063597d4a80146100e6578063715018a6146101085780637cb64759146101125780638da5cb5b14610125575b600080fd5b6100d16100b1366004610aa2565b600560209081526000928352604080842090915290825290205460ff1681565b60405190151581526020015b60405180910390f35b6100f96100f4366004610acc565b6101a1565b6040516100dd93929190610ae5565b610110610259565b005b610110610120366004610acc565b61026d565b6000546040516001600160a01b0390911681526020016100dd565b61011061014e366004610b9a565b610284565b610110610161366004610b9a565b6103f0565b61016e610545565b6040516100dd9190610be6565b610110610189366004610c2a565b61059d565b61011061019c366004610cc1565b610738565b6004602052600090815260409020805481906101bc90610cdc565b80601f01602080910402602001604051908101604052809291908181526020018280546101e890610cdc565b80156102355780601f1061020a57610100808354040283529160200191610235565b820191906000526020600020905b81548152906001019060200180831161021857829003601f168201915b505050600190930154919250506001600160801b0380821691600160801b90041683565b6102616107b1565b61026b600061080b565b565b6102756107b1565b61027f607b61085b565b600155565b81816102916101c861085b565b6102da8282808060200260200160405190810160405280939291908181526020018383602002808284376000920191909152505060015491506102d59050336108a0565b6108e7565b6102ff5760405162461bcd60e51b81526004016102f690610d16565b60405180910390fd5b33600090815260056020908152604080832088845290915290205460ff1615156001036103685760405162461bcd60e51b81526020600482015260176024820152761d1a1a5cc81d5cd95c88185b1c9958591e481d9bdd1959604a1b60448201526064016102f6565b610372606f61085b565b600085815260046020526040812060010180546001600160801b03169161039883610d5a565b82546001600160801b039182166101009390930a9283029190920219909116179055503360009081526005602090815260408083208884529091529020805460ff191660011790556103e9856108fd565b5050505050565b81816103fd6101c861085b565b6104418282808060200260200160405190810160405280939291908181526020018383602002808284376000920191909152505060015491506102d59050336108a0565b61045d5760405162461bcd60e51b81526004016102f690610d16565b33600090815260056020908152604080832088845290915290205460ff1615156001036104c65760405162461bcd60e51b81526020600482015260176024820152761d1a1a5cc81d5cd95c88185b1c9958591e481d9bdd1959604a1b60448201526064016102f6565b60008581526004602052604090206001018054600160801b90046001600160801b03169060106104f583610d5a565b82546001600160801b039182166101009390930a9283029190920219909116179055505033600090815260056020908152604080832096835295905293909320805460ff19166001179055505050565b6060600280548060200260200160405190810160405280929190818152602001828054801561059357602002820191906000526020600020905b81548152602001906001019080831161057f575b5050505050905090565b81816105aa6101c861085b565b6105ee8282808060200260200160405190810160405280939291908181526020018383602002808284376000920191909152505060015491506102d59050336108a0565b61060a5760405162461bcd60e51b81526004016102f690610d16565b6000868660405160200161061f929190610d80565b60408051601f1981840301815282825280516020918201206080601f8b0183900490920284018201909252606083018981529193508291908a908a90819085018382808284376000920182905250938552505050602080830182905260409283018290528482526004905220815181906106999082610e14565b5060208201516040909201516001600160801b03908116600160801b029216919091176001918201556002805491820181556000527f405787fa12a823e0f2b7631cc41b3ba8828b3321ca811111fa75cd3aa3bb5ace018190556106fc8161085b565b6040518181527f8240970fe48e7326c1988bac710fa94e48ffac4c80da6f31d40e52fc71df10599060200160405180910390a150505050505050565b6107406107b1565b6001600160a01b0381166107a55760405162461bcd60e51b815260206004820152602660248201527f4f776e61626c653a206e6577206f776e657220697320746865207a65726f206160448201526564647265737360d01b60648201526084016102f6565b6107ae8161080b565b50565b6000546001600160a01b0316331461026b5760405162461bcd60e51b815260206004820181905260248201527f4f776e61626c653a2063616c6c6572206973206e6f7420746865206f776e657260448201526064016102f6565b600080546001600160a01b038381166001600160a01b0319831681178455604051919092169283917f8be0079c531659141344cd1fd0a4f28419497f9722a3daafe3b4186f6b6457e09190a35050565b6107ae8160405160240161087191815260200190565b60408051601f198184030181529190526020810180516001600160e01b031663f82c50f160e01b17905261092a565b60006108ab8261094b565b6040516bffffffffffffffffffffffff19606084901b166020820152603401604051602081830303815290604052805190602001209050919050565b6000826108f48584610993565b14949350505050565b60008181526004602052604090206001015460056001600160801b03909116106107ae576107ae816109e0565b80516a636f6e736f6c652e6c6f67602083016000808483855afa5050505050565b6040516001600160a01b03821660248201526107ae9060440160408051601f198184030181529190526020810180516001600160e01b031663161765e160e11b17905261092a565b600081815b84518110156109d8576109c4828683815181106109b7576109b7610ed4565b6020026020010151610a06565b9150806109d081610eea565b915050610998565b509392505050565b6000818152600460205260408120906109f98282610a38565b5060006001919091015550565b6000818310610a22576000828152602084905260409020610a31565b60008381526020839052604090205b9392505050565b508054610a4490610cdc565b6000825580601f10610a54575050565b601f0160209004906000526020600020908101906107ae91905b80821115610a825760008155600101610a6e565b5090565b80356001600160a01b0381168114610a9d57600080fd5b919050565b60008060408385031215610ab557600080fd5b610abe83610a86565b946020939093013593505050565b600060208284031215610ade57600080fd5b5035919050565b606081526000845180606084015260005b81811015610b135760208188018101516080868401015201610af6565b506000608082850101526080601f19601f8301168401019150506001600160801b038085166020840152808416604084015250949350505050565b60008083601f840112610b6057600080fd5b50813567ffffffffffffffff811115610b7857600080fd5b6020830191508360208260051b8501011115610b9357600080fd5b9250929050565b600080600060408486031215610baf57600080fd5b83359250602084013567ffffffffffffffff811115610bcd57600080fd5b610bd986828701610b4e565b9497909650939450505050565b6020808252825182820181905260009190848201906040850190845b81811015610c1e57835183529284019291840191600101610c02565b50909695505050505050565b60008060008060408587031215610c4057600080fd5b843567ffffffffffffffff80821115610c5857600080fd5b818701915087601f830112610c6c57600080fd5b813581811115610c7b57600080fd5b886020828501011115610c8d57600080fd5b602092830196509450908601359080821115610ca857600080fd5b50610cb587828801610b4e565b95989497509550505050565b600060208284031215610cd357600080fd5b610a3182610a86565b600181811c90821680610cf057607f821691505b602082108103610d1057634e487b7160e01b600052602260045260246000fd5b50919050565b60208082526014908201527334b73b30b634b21036b2b935b63290383937b7b360611b604082015260600190565b634e487b7160e01b600052601160045260246000fd5b60006001600160801b03808316818103610d7657610d76610d44565b6001019392505050565b60208152816020820152818360408301376000818301604090810191909152601f909201601f19160101919050565b634e487b7160e01b600052604160045260246000fd5b601f821115610e0f57600081815260208120601f850160051c81016020861015610dec5750805b601f850160051c820191505b81811015610e0b57828155600101610df8565b5050505b505050565b815167ffffffffffffffff811115610e2e57610e2e610daf565b610e4281610e3c8454610cdc565b84610dc5565b602080601f831160018114610e775760008415610e5f5750858301515b600019600386901b1c1916600185901b178555610e0b565b600085815260208120601f198616915b82811015610ea657888601518255948401946001909101908401610e87565b5085821015610ec45787850151600019600388901b60f8161c191681555b5050505050600190811b01905550565b634e487b7160e01b600052603260045260246000fd5b600060018201610efc57610efc610d44565b506001019056fea26469706673582212209a82fc4e1146e89807e443f95ad8324a19180b1c6cab1b6c6dabaeee0ba9c3d164736f6c63430008110033",
    "sourcePath": "/Users/user/Projects/testIzzzio/solidityPart/contracts/Voting.sol",
    "compiler": {
        "name": "solc",
        "version": "0.8.17+commit.8df45f5f"
    },
    "functionHashes": {
        "IdToBallot(uint256)": "597d4a80",
        "UserVoice(address,uint256)": "29d63d53",
        "createVoting(string,bytes32[])": "ea6b60fd",
        "getIdsArray()": "e0100a4d",
        "owner()": "8da5cb5b",
        "renounceOwnership()": "715018a6",
        "setMerkleRoot(bytes32)": "7cb64759",
        "transferOwnership(address)": "f2fde38b",
        "voteAgainst(uint256,bytes32[])": "badab31e",
        "voteFor(uint256,bytes32[])": "a82a5601"
    },
    "gasEstimates": {
        "creation": {
            "codeDepositCost": "779400",
            "executionCost": "26653",
            "totalCost": "806053"
        },
        "external": {
            "IdToBallot(uint256)": "infinite",
            "UserVoice(address,uint256)": "2614",
            "createVoting(string,bytes32[])": "infinite",
            "getIdsArray()": "infinite",
            "owner()": "2390",
            "renounceOwnership()": "infinite",
            "setMerkleRoot(bytes32)": "infinite",
            "transferOwnership(address)": "28421",
            "voteAgainst(uint256,bytes32[])": "infinite",
            "voteFor(uint256,bytes32[])": "infinite"
        },
        "internal": {
            "checkYesCount(uint256)": "infinite",
            "removeVoting(uint256)": "infinite",
            "toBytes32(address)": "infinite"
        }
    }
}